{
  "_format": "hh-sol-artifact-1",
  "contractName": "SkillBridgeMain",
  "sourceName": "SkillBridgeMain.sol",
  "abi": [
    {
      "inputs": [
        {
          "internalType": "address",
          "name": "_sbtToken",
          "type": "address"
        },
        {
          "internalType": "address",
          "name": "_nftContract",
          "type": "address"
        },
        {
          "internalType": "address",
          "name": "initialOwner",
          "type": "address"
        }
      ],
      "stateMutability": "nonpayable",
      "type": "constructor"
    },
    {
      "inputs": [
        {
          "internalType": "address",
          "name": "owner",
          "type": "address"
        }
      ],
      "name": "OwnableInvalidOwner",
      "type": "error"
    },
    {
      "inputs": [
        {
          "internalType": "address",
          "name": "account",
          "type": "address"
        }
      ],
      "name": "OwnableUnauthorizedAccount",
      "type": "error"
    },
    {
      "anonymous": false,
      "inputs": [
        {
          "indexed": true,
          "internalType": "address",
          "name": "student",
          "type": "address"
        },
        {
          "indexed": true,
          "internalType": "uint256",
          "name": "courseId",
          "type": "uint256"
        },
        {
          "indexed": false,
          "internalType": "uint256",
          "name": "nftTokenId",
          "type": "uint256"
        }
      ],
      "name": "CourseCompleted",
      "type": "event"
    },
    {
      "anonymous": false,
      "inputs": [
        {
          "indexed": true,
          "internalType": "uint256",
          "name": "courseId",
          "type": "uint256"
        },
        {
          "indexed": true,
          "internalType": "address",
          "name": "instructor",
          "type": "address"
        },
        {
          "indexed": false,
          "internalType": "string",
          "name": "title",
          "type": "string"
        },
        {
          "indexed": false,
          "internalType": "uint256",
          "name": "price",
          "type": "uint256"
        }
      ],
      "name": "CourseCreated",
      "type": "event"
    },
    {
      "anonymous": false,
      "inputs": [
        {
          "indexed": true,
          "internalType": "address",
          "name": "student",
          "type": "address"
        },
        {
          "indexed": true,
          "internalType": "uint256",
          "name": "courseId",
          "type": "uint256"
        },
        {
          "indexed": false,
          "internalType": "uint256",
          "name": "price",
          "type": "uint256"
        }
      ],
      "name": "CourseEnrolled",
      "type": "event"
    },
    {
      "anonymous": false,
      "inputs": [
        {
          "indexed": true,
          "internalType": "address",
          "name": "previousOwner",
          "type": "address"
        },
        {
          "indexed": true,
          "internalType": "address",
          "name": "newOwner",
          "type": "address"
        }
      ],
      "name": "OwnershipTransferred",
      "type": "event"
    },
    {
      "anonymous": false,
      "inputs": [
        {
          "indexed": true,
          "internalType": "address",
          "name": "user",
          "type": "address"
        },
        {
          "indexed": false,
          "internalType": "uint256",
          "name": "score",
          "type": "uint256"
        },
        {
          "indexed": false,
          "internalType": "uint256",
          "name": "tokensEarned",
          "type": "uint256"
        }
      ],
      "name": "TestCompleted",
      "type": "event"
    },
    {
      "inputs": [
        {
          "internalType": "uint256",
          "name": "_courseId",
          "type": "uint256"
        },
        {
          "internalType": "string",
          "name": "_resultCID",
          "type": "string"
        }
      ],
      "name": "completeCourse",
      "outputs": [],
      "stateMutability": "nonpayable",
      "type": "function"
    },
    {
      "inputs": [
        {
          "internalType": "uint256",
          "name": "_score",
          "type": "uint256"
        }
      ],
      "name": "completeTest",
      "outputs": [],
      "stateMutability": "nonpayable",
      "type": "function"
    },
    {
      "inputs": [
        {
          "internalType": "uint256",
          "name": "",
          "type": "uint256"
        }
      ],
      "name": "courses",
      "outputs": [
        {
          "internalType": "uint256",
          "name": "id",
          "type": "uint256"
        },
        {
          "internalType": "address",
          "name": "instructor",
          "type": "address"
        },
        {
          "internalType": "string",
          "name": "title",
          "type": "string"
        },
        {
          "internalType": "uint256",
          "name": "price",
          "type": "uint256"
        },
        {
          "internalType": "string",
          "name": "metadataCID",
          "type": "string"
        },
        {
          "internalType": "bool",
          "name": "isActive",
          "type": "bool"
        },
        {
          "internalType": "uint256",
          "name": "createdAt",
          "type": "uint256"
        }
      ],
      "stateMutability": "view",
      "type": "function"
    },
    {
      "inputs": [
        {
          "internalType": "string",
          "name": "_metadataCID",
          "type": "string"
        },
        {
          "internalType": "string",
          "name": "_title",
          "type": "string"
        },
        {
          "internalType": "uint256",
          "name": "_price",
          "type": "uint256"
        }
      ],
      "name": "createCourse",
      "outputs": [],
      "stateMutability": "nonpayable",
      "type": "function"
    },
    {
      "inputs": [
        {
          "internalType": "uint256",
          "name": "_courseId",
          "type": "uint256"
        }
      ],
      "name": "enrollInCourse",
      "outputs": [],
      "stateMutability": "nonpayable",
      "type": "function"
    },
    {
      "inputs": [
        {
          "internalType": "address",
          "name": "instructor",
          "type": "address"
        }
      ],
      "name": "getInstructorCourses",
      "outputs": [
        {
          "internalType": "uint256[]",
          "name": "",
          "type": "uint256[]"
        }
      ],
      "stateMutability": "view",
      "type": "function"
    },
    {
      "inputs": [
        {
          "internalType": "address",
          "name": "user",
          "type": "address"
        }
      ],
      "name": "getUserEnrolledCourses",
      "outputs": [
        {
          "internalType": "uint256[]",
          "name": "",
          "type": "uint256[]"
        }
      ],
      "stateMutability": "view",
      "type": "function"
    },
    {
      "inputs": [
        {
          "internalType": "address",
          "name": "user",
          "type": "address"
        },
        {
          "internalType": "uint256",
          "name": "courseId",
          "type": "uint256"
        }
      ],
      "name": "hasAccessToCourse",
      "outputs": [
        {
          "internalType": "bool",
          "name": "",
          "type": "bool"
        }
      ],
      "stateMutability": "view",
      "type": "function"
    },
    {
      "inputs": [
        {
          "internalType": "address",
          "name": "",
          "type": "address"
        },
        {
          "internalType": "uint256",
          "name": "",
          "type": "uint256"
        }
      ],
      "name": "instructorCourses",
      "outputs": [
        {
          "internalType": "uint256",
          "name": "",
          "type": "uint256"
        }
      ],
      "stateMutability": "view",
      "type": "function"
    },
    {
      "inputs": [],
      "name": "nextCourseId",
      "outputs": [
        {
          "internalType": "uint256",
          "name": "",
          "type": "uint256"
        }
      ],
      "stateMutability": "view",
      "type": "function"
    },
    {
      "inputs": [],
      "name": "nftCertificate",
      "outputs": [
        {
          "internalType": "contract SkillBridgeNFT",
          "name": "",
          "type": "address"
        }
      ],
      "stateMutability": "view",
      "type": "function"
    },
    {
      "inputs": [],
      "name": "owner",
      "outputs": [
        {
          "internalType": "address",
          "name": "",
          "type": "address"
        }
      ],
      "stateMutability": "view",
      "type": "function"
    },
    {
      "inputs": [],
      "name": "renounceOwnership",
      "outputs": [],
      "stateMutability": "nonpayable",
      "type": "function"
    },
    {
      "inputs": [
        {
          "internalType": "uint256",
          "name": "_score",
          "type": "uint256"
        },
        {
          "internalType": "uint256",
          "name": "_fee",
          "type": "uint256"
        }
      ],
      "name": "retakeTest",
      "outputs": [],
      "stateMutability": "nonpayable",
      "type": "function"
    },
    {
      "inputs": [],
      "name": "sbtToken",
      "outputs": [
        {
          "internalType": "contract IERC20",
          "name": "",
          "type": "address"
        }
      ],
      "stateMutability": "view",
      "type": "function"
    },
    {
      "inputs": [
        {
          "internalType": "address",
          "name": "newOwner",
          "type": "address"
        }
      ],
      "name": "transferOwnership",
      "outputs": [],
      "stateMutability": "nonpayable",
      "type": "function"
    },
    {
      "inputs": [
        {
          "internalType": "address",
          "name": "",
          "type": "address"
        },
        {
          "internalType": "uint256",
          "name": "",
          "type": "uint256"
        }
      ],
      "name": "userCourses",
      "outputs": [
        {
          "internalType": "uint256",
          "name": "",
          "type": "uint256"
        }
      ],
      "stateMutability": "view",
      "type": "function"
    },
    {
      "inputs": [
        {
          "internalType": "address",
          "name": "",
          "type": "address"
        }
      ],
      "name": "users",
      "outputs": [
        {
          "internalType": "address",
          "name": "wallet",
          "type": "address"
        },
        {
          "internalType": "uint256",
          "name": "testScore",
          "type": "uint256"
        },
        {
          "internalType": "uint256",
          "name": "tokensEarned",
          "type": "uint256"
        },
        {
          "internalType": "uint256",
          "name": "coursesCompleted",
          "type": "uint256"
        },
        {
          "internalType": "bool",
          "name": "hasCompletedTest",
          "type": "bool"
        }
      ],
      "stateMutability": "view",
      "type": "function"
    }
  ],
  "bytecode": "0x60806040523480156200001157600080fd5b5060405162002a2c38038062002a2c833981810160405281019062000037919062000280565b80600073ffffffffffffffffffffffffffffffffffffffff168173ffffffffffffffffffffffffffffffffffffffff1603620000ad5760006040517f1e4fbdf7000000000000000000000000000000000000000000000000000000008152600401620000a49190620002ed565b60405180910390fd5b620000be816200015260201b60201c565b5082600160006101000a81548173ffffffffffffffffffffffffffffffffffffffff021916908373ffffffffffffffffffffffffffffffffffffffff16021790555081600260006101000a81548173ffffffffffffffffffffffffffffffffffffffff021916908373ffffffffffffffffffffffffffffffffffffffff16021790555060016003819055505050506200030a565b60008060009054906101000a900473ffffffffffffffffffffffffffffffffffffffff169050816000806101000a81548173ffffffffffffffffffffffffffffffffffffffff021916908373ffffffffffffffffffffffffffffffffffffffff1602179055508173ffffffffffffffffffffffffffffffffffffffff168173ffffffffffffffffffffffffffffffffffffffff167f8be0079c531659141344cd1fd0a4f28419497f9722a3daafe3b4186f6b6457e060405160405180910390a35050565b600080fd5b600073ffffffffffffffffffffffffffffffffffffffff82169050919050565b600062000248826200021b565b9050919050565b6200025a816200023b565b81146200026657600080fd5b50565b6000815190506200027a816200024f565b92915050565b6000806000606084860312156200029c576200029b62000216565b5b6000620002ac8682870162000269565b9350506020620002bf8682870162000269565b9250506040620002d28682870162000269565b9150509250925092565b620002e7816200023b565b82525050565b6000602082019050620003046000830184620002dc565b92915050565b612712806200031a6000396000f3fe608060405234801561001057600080fd5b50600436106101165760003560e01c8063829ae6f4116100a2578063a4adb24b11610071578063a4adb24b146102f9578063a87430ba14610315578063c9d4188f14610349578063e359d99714610365578063f2fde38b1461038357610116565b8063829ae6f4146102455780638da5cb5b1461027557806393a05c201461029357806396f979d2146102c357610116565b8063690e8434116100e9578063690e8434146101b35780636a0304bf146101cf5780636ceff219146101ed578063715018a61461021d5780637d83daf21461022757610116565b80630e3fecd21461011b57806344674e431461013757806350774a15146101675780635e52da2714610197575b600080fd5b61013560048036038101906101309190611734565b61039f565b005b610151600480360381019061014c91906117d2565b61071b565b60405161015e91906118bd565b60405180910390f35b610181600480360381019061017c91906118df565b6107b2565b60405161018e919061193a565b60405180910390f35b6101b160048036038101906101ac9190611955565b61087a565b005b6101cd60048036038101906101c89190611ac8565b610b9c565b005b6101d7610d35565b6040516101e49190611b83565b60405180910390f35b610207600480360381019061020291906118df565b610d5b565b6040516102149190611bad565b60405180910390f35b610225610d8c565b005b61022f610da0565b60405161023c9190611bad565b60405180910390f35b61025f600480360381019061025a91906117d2565b610da6565b60405161026c91906118bd565b60405180910390f35b61027d610e3d565b60405161028a9190611bd7565b60405180910390f35b6102ad60048036038101906102a891906118df565b610e66565b6040516102ba9190611bad565b60405180910390f35b6102dd60048036038101906102d89190611955565b610e97565b6040516102f09796959493929190611c71565b60405180910390f35b610313600480360381019061030e9190611cee565b611016565b005b61032f600480360381019061032a91906117d2565b6111a5565b604051610340959493929190611d79565b60405180910390f35b610363600480360381019061035e9190611955565b611208565b005b61036d6114eb565b60405161037a9190611ded565b60405180910390f35b61039d600480360381019061039891906117d2565b611511565b005b600460003373ffffffffffffffffffffffffffffffffffffffff1673ffffffffffffffffffffffffffffffffffffffff16815260200190815260200160002060040160009054906101000a900460ff1661042e576040517f08c379a000000000000000000000000000000000000000000000000000000000815260040161042590611e54565b60405180910390fd5b600160009054906101000a900473ffffffffffffffffffffffffffffffffffffffff1673ffffffffffffffffffffffffffffffffffffffff166323b872dd3330846040518463ffffffff1660e01b815260040161048d93929190611e74565b6020604051808303816000875af11580156104ac573d6000803e3d6000fd5b505050506040513d601f19601f820116820180604052508101906104d09190611ed7565b61050f576040517f08c379a000000000000000000000000000000000000000000000000000000000815260040161050690611f50565b60405180910390fd5b81600460003373ffffffffffffffffffffffffffffffffffffffff1673ffffffffffffffffffffffffffffffffffffffff16815260200190815260200160002060010181905550670de0b6b3a76400008261056a9190611f9f565b600460003373ffffffffffffffffffffffffffffffffffffffff1673ffffffffffffffffffffffffffffffffffffffff16815260200190815260200160002060020160008282546105bb9190611fe1565b92505081905550600160009054906101000a900473ffffffffffffffffffffffffffffffffffffffff1673ffffffffffffffffffffffffffffffffffffffff1663a9059cbb33670de0b6b3a7640000856106159190611f9f565b6040518363ffffffff1660e01b8152600401610632929190612015565b6020604051808303816000875af1158015610651573d6000803e3d6000fd5b505050506040513d601f19601f820116820180604052508101906106759190611ed7565b6106b4576040517f08c379a00000000000000000000000000000000000000000000000000000000081526004016106ab9061208a565b60405180910390fd5b3373ffffffffffffffffffffffffffffffffffffffff167f2324acb3fe79183632ceecbae105261c5d54e95afd1cfbe33ebffc2b05652fd283670de0b6b3a7640000856107019190611f9f565b60405161070f9291906120aa565b60405180910390a25050565b6060600760008373ffffffffffffffffffffffffffffffffffffffff1673ffffffffffffffffffffffffffffffffffffffff1681526020019081526020016000208054806020026020016040519081016040528092919081815260200182805480156107a657602002820191906000526020600020905b815481526020019060010190808311610792575b50505050509050919050565b60008060056000848152602001908152602001600020905060005b816005018054905081101561086d578473ffffffffffffffffffffffffffffffffffffffff16826005018281548110610809576108086120d3565b5b9060005260206000200160009054906101000a900473ffffffffffffffffffffffffffffffffffffffff1673ffffffffffffffffffffffffffffffffffffffff160361085a57600192505050610874565b808061086590612102565b9150506107cd565b5060009150505b92915050565b60006005600083815260200190815260200160002090508060060160009054906101000a900460ff166108e2576040517f08c379a00000000000000000000000000000000000000000000000000000000081526004016108d990612196565b60405180910390fd5b600460003373ffffffffffffffffffffffffffffffffffffffff1673ffffffffffffffffffffffffffffffffffffffff16815260200190815260200160002060040160009054906101000a900460ff16610971576040517f08c379a000000000000000000000000000000000000000000000000000000000815260040161096890612202565b60405180910390fd5b600160009054906101000a900473ffffffffffffffffffffffffffffffffffffffff1673ffffffffffffffffffffffffffffffffffffffff166323b872dd338360010160009054906101000a900473ffffffffffffffffffffffffffffffffffffffff1684600301546040518463ffffffff1660e01b81526004016109f893929190611e74565b6020604051808303816000875af1158015610a17573d6000803e3d6000fd5b505050506040513d601f19601f82011682018060405250810190610a3b9190611ed7565b610a7a576040517f08c379a0000000000000000000000000000000000000000000000000000000008152600401610a719061226e565b60405180910390fd5b80600501339080600181540180825580915050600190039060005260206000200160009091909190916101000a81548173ffffffffffffffffffffffffffffffffffffffff021916908373ffffffffffffffffffffffffffffffffffffffff160217905550600660003373ffffffffffffffffffffffffffffffffffffffff1673ffffffffffffffffffffffffffffffffffffffff168152602001908152602001600020829080600181540180825580915050600190039060005260206000200160009091909190915055813373ffffffffffffffffffffffffffffffffffffffff167fb975c93c50aa94d9c86dd9fb379701dc0bdc2aa1c503bf46d9cf4f313e0f47fc8360030154604051610b909190611bad565b60405180910390a35050565b610ba633836107b2565b610be5576040517f08c379a0000000000000000000000000000000000000000000000000000000008152600401610bdc906122da565b60405180910390fd5b6000600260009054906101000a900473ffffffffffffffffffffffffffffffffffffffff1673ffffffffffffffffffffffffffffffffffffffff16630712249f33846040518363ffffffff1660e01b8152600401610c449291906122fa565b6020604051808303816000875af1158015610c63573d6000803e3d6000fd5b505050506040513d601f19601f82011682018060405250810190610c87919061233f565b9050600460003373ffffffffffffffffffffffffffffffffffffffff1673ffffffffffffffffffffffffffffffffffffffff1681526020019081526020016000206003016000815480929190610cdc90612102565b9190505550823373ffffffffffffffffffffffffffffffffffffffff167f69598479254610bc37273ec300171cd231505beb1ee68d360cbd78c1bd81827883604051610d289190611bad565b60405180910390a3505050565b600260009054906101000a900473ffffffffffffffffffffffffffffffffffffffff1681565b60076020528160005260406000208181548110610d7757600080fd5b90600052602060002001600091509150505481565b610d94611597565b610d9e600061161e565b565b60035481565b6060600660008373ffffffffffffffffffffffffffffffffffffffff1673ffffffffffffffffffffffffffffffffffffffff168152602001908152602001600020805480602002602001604051908101604052809291908181526020018280548015610e3157602002820191906000526020600020905b815481526020019060010190808311610e1d575b50505050509050919050565b60008060009054906101000a900473ffffffffffffffffffffffffffffffffffffffff16905090565b60066020528160005260406000208181548110610e8257600080fd5b90600052602060002001600091509150505481565b60056020528060005260406000206000915090508060000154908060010160009054906101000a900473ffffffffffffffffffffffffffffffffffffffff1690806002018054610ee69061239b565b80601f0160208091040260200160405190810160405280929190818152602001828054610f129061239b565b8015610f5f5780601f10610f3457610100808354040283529160200191610f5f565b820191906000526020600020905b815481529060010190602001808311610f4257829003601f168201915b505050505090806003015490806004018054610f7a9061239b565b80601f0160208091040260200160405190810160405280929190818152602001828054610fa69061239b565b8015610ff35780601f10610fc857610100808354040283529160200191610ff3565b820191906000526020600020905b815481529060010190602001808311610fd657829003601f168201915b5050505050908060060160009054906101000a900460ff16908060070154905087565b60006003600081548092919061102b90612102565b9190505590506000600560008381526020019081526020016000209050818160000181905550338160010160006101000a81548173ffffffffffffffffffffffffffffffffffffffff021916908373ffffffffffffffffffffffffffffffffffffffff160217905550838160020190816110a5919061256e565b50828160030181905550848160040190816110c0919061256e565b5060018160060160006101000a81548160ff021916908315150217905550428160070181905550600760003373ffffffffffffffffffffffffffffffffffffffff1673ffffffffffffffffffffffffffffffffffffffff1681526020019081526020016000208290806001815401808255809150506001900390600052602060002001600090919091909150553373ffffffffffffffffffffffffffffffffffffffff16827f27b444394f1a7b0aa73d468ff76433d70ccbd1517709b5a2b06eaf249a4ddcf08686604051611196929190612640565b60405180910390a35050505050565b60046020528060005260406000206000915090508060000160009054906101000a900473ffffffffffffffffffffffffffffffffffffffff16908060010154908060020154908060030154908060040160009054906101000a900460ff16905085565b600460003373ffffffffffffffffffffffffffffffffffffffff1673ffffffffffffffffffffffffffffffffffffffff16815260200190815260200160002060040160009054906101000a900460ff1615611298576040517f08c379a000000000000000000000000000000000000000000000000000000000815260040161128f906126bc565b60405180910390fd5b6000670de0b6b3a7640000826112ae9190611f9f565b90506040518060a001604052803373ffffffffffffffffffffffffffffffffffffffff1681526020018381526020018281526020016000815260200160011515815250600460003373ffffffffffffffffffffffffffffffffffffffff1673ffffffffffffffffffffffffffffffffffffffff16815260200190815260200160002060008201518160000160006101000a81548173ffffffffffffffffffffffffffffffffffffffff021916908373ffffffffffffffffffffffffffffffffffffffff16021790555060208201518160010155604082015181600201556060820151816003015560808201518160040160006101000a81548160ff021916908315150217905550905050600160009054906101000a900473ffffffffffffffffffffffffffffffffffffffff1673ffffffffffffffffffffffffffffffffffffffff1663a9059cbb33836040518363ffffffff1660e01b8152600401611415929190612015565b6020604051808303816000875af1158015611434573d6000803e3d6000fd5b505050506040513d601f19601f820116820180604052508101906114589190611ed7565b611497576040517f08c379a000000000000000000000000000000000000000000000000000000000815260040161148e9061208a565b60405180910390fd5b3373ffffffffffffffffffffffffffffffffffffffff167f2324acb3fe79183632ceecbae105261c5d54e95afd1cfbe33ebffc2b05652fd283836040516114df9291906120aa565b60405180910390a25050565b600160009054906101000a900473ffffffffffffffffffffffffffffffffffffffff1681565b611519611597565b600073ffffffffffffffffffffffffffffffffffffffff168173ffffffffffffffffffffffffffffffffffffffff160361158b5760006040517f1e4fbdf70000000000000000000000000000000000000000000000000000000081526004016115829190611bd7565b60405180910390fd5b6115948161161e565b50565b61159f6116e2565b73ffffffffffffffffffffffffffffffffffffffff166115bd610e3d565b73ffffffffffffffffffffffffffffffffffffffff161461161c576115e06116e2565b6040517f118cdaa70000000000000000000000000000000000000000000000000000000081526004016116139190611bd7565b60405180910390fd5b565b60008060009054906101000a900473ffffffffffffffffffffffffffffffffffffffff169050816000806101000a81548173ffffffffffffffffffffffffffffffffffffffff021916908373ffffffffffffffffffffffffffffffffffffffff1602179055508173ffffffffffffffffffffffffffffffffffffffff168173ffffffffffffffffffffffffffffffffffffffff167f8be0079c531659141344cd1fd0a4f28419497f9722a3daafe3b4186f6b6457e060405160405180910390a35050565b600033905090565b6000604051905090565b600080fd5b600080fd5b6000819050919050565b611711816116fe565b811461171c57600080fd5b50565b60008135905061172e81611708565b92915050565b6000806040838503121561174b5761174a6116f4565b5b60006117598582860161171f565b925050602061176a8582860161171f565b9150509250929050565b600073ffffffffffffffffffffffffffffffffffffffff82169050919050565b600061179f82611774565b9050919050565b6117af81611794565b81146117ba57600080fd5b50565b6000813590506117cc816117a6565b92915050565b6000602082840312156117e8576117e76116f4565b5b60006117f6848285016117bd565b91505092915050565b600081519050919050565b600082825260208201905092915050565b6000819050602082019050919050565b611834816116fe565b82525050565b6000611846838361182b565b60208301905092915050565b6000602082019050919050565b600061186a826117ff565b611874818561180a565b935061187f8361181b565b8060005b838110156118b0578151611897888261183a565b97506118a283611852565b925050600181019050611883565b5085935050505092915050565b600060208201905081810360008301526118d7818461185f565b905092915050565b600080604083850312156118f6576118f56116f4565b5b6000611904858286016117bd565b92505060206119158582860161171f565b9150509250929050565b60008115159050919050565b6119348161191f565b82525050565b600060208201905061194f600083018461192b565b92915050565b60006020828403121561196b5761196a6116f4565b5b60006119798482850161171f565b91505092915050565b600080fd5b600080fd5b6000601f19601f8301169050919050565b7f4e487b7100000000000000000000000000000000000000000000000000000000600052604160045260246000fd5b6119d58261198c565b810181811067ffffffffffffffff821117156119f4576119f361199d565b5b80604052505050565b6000611a076116ea565b9050611a1382826119cc565b919050565b600067ffffffffffffffff821115611a3357611a3261199d565b5b611a3c8261198c565b9050602081019050919050565b82818337600083830152505050565b6000611a6b611a6684611a18565b6119fd565b905082815260208101848484011115611a8757611a86611987565b5b611a92848285611a49565b509392505050565b600082601f830112611aaf57611aae611982565b5b8135611abf848260208601611a58565b91505092915050565b60008060408385031215611adf57611ade6116f4565b5b6000611aed8582860161171f565b925050602083013567ffffffffffffffff811115611b0e57611b0d6116f9565b5b611b1a85828601611a9a565b9150509250929050565b6000819050919050565b6000611b49611b44611b3f84611774565b611b24565b611774565b9050919050565b6000611b5b82611b2e565b9050919050565b6000611b6d82611b50565b9050919050565b611b7d81611b62565b82525050565b6000602082019050611b986000830184611b74565b92915050565b611ba7816116fe565b82525050565b6000602082019050611bc26000830184611b9e565b92915050565b611bd181611794565b82525050565b6000602082019050611bec6000830184611bc8565b92915050565b600081519050919050565b600082825260208201905092915050565b60005b83811015611c2c578082015181840152602081019050611c11565b60008484015250505050565b6000611c4382611bf2565b611c4d8185611bfd565b9350611c5d818560208601611c0e565b611c668161198c565b840191505092915050565b600060e082019050611c86600083018a611b9e565b611c936020830189611bc8565b8181036040830152611ca58188611c38565b9050611cb46060830187611b9e565b8181036080830152611cc68186611c38565b9050611cd560a083018561192b565b611ce260c0830184611b9e565b98975050505050505050565b600080600060608486031215611d0757611d066116f4565b5b600084013567ffffffffffffffff811115611d2557611d246116f9565b5b611d3186828701611a9a565b935050602084013567ffffffffffffffff811115611d5257611d516116f9565b5b611d5e86828701611a9a565b9250506040611d6f8682870161171f565b9150509250925092565b600060a082019050611d8e6000830188611bc8565b611d9b6020830187611b9e565b611da86040830186611b9e565b611db56060830185611b9e565b611dc2608083018461192b565b9695505050505050565b6000611dd782611b50565b9050919050565b611de781611dcc565b82525050565b6000602082019050611e026000830184611dde565b92915050565b7f496e697469616c20746573742072657175697265640000000000000000000000600082015250565b6000611e3e601583611bfd565b9150611e4982611e08565b602082019050919050565b60006020820190508181036000830152611e6d81611e31565b9050919050565b6000606082019050611e896000830186611bc8565b611e966020830185611bc8565b611ea36040830184611b9e565b949350505050565b611eb48161191f565b8114611ebf57600080fd5b50565b600081519050611ed181611eab565b92915050565b600060208284031215611eed57611eec6116f4565b5b6000611efb84828501611ec2565b91505092915050565b7f526574616b6520666565206661696c6564000000000000000000000000000000600082015250565b6000611f3a601183611bfd565b9150611f4582611f04565b602082019050919050565b60006020820190508181036000830152611f6981611f2d565b9050919050565b7f4e487b7100000000000000000000000000000000000000000000000000000000600052601160045260246000fd5b6000611faa826116fe565b9150611fb5836116fe565b9250828202611fc3816116fe565b91508282048414831517611fda57611fd9611f70565b5b5092915050565b6000611fec826116fe565b9150611ff7836116fe565b925082820190508082111561200f5761200e611f70565b5b92915050565b600060408201905061202a6000830185611bc8565b6120376020830184611b9e565b9392505050565b7f546f6b656e20726577617264206661696c656400000000000000000000000000600082015250565b6000612074601383611bfd565b915061207f8261203e565b602082019050919050565b600060208201905081810360008301526120a381612067565b9050919050565b60006040820190506120bf6000830185611b9e565b6120cc6020830184611b9e565b9392505050565b7f4e487b7100000000000000000000000000000000000000000000000000000000600052603260045260246000fd5b600061210d826116fe565b91507fffffffffffffffffffffffffffffffffffffffffffffffffffffffffffffffff820361213f5761213e611f70565b5b600182019050919050565b7f496e61637469766520636f757273650000000000000000000000000000000000600082015250565b6000612180600f83611bfd565b915061218b8261214a565b602082019050919050565b600060208201905081810360008301526121af81612173565b9050919050565b7f54657374206e6f7420636f6d706c657465640000000000000000000000000000600082015250565b60006121ec601283611bfd565b91506121f7826121b6565b602082019050919050565b6000602082019050818103600083015261221b816121df565b9050919050565b7f5061796d656e74206661696c6564000000000000000000000000000000000000600082015250565b6000612258600e83611bfd565b915061226382612222565b602082019050919050565b600060208201905081810360008301526122878161224b565b9050919050565b7f4e6f7420656e726f6c6c65640000000000000000000000000000000000000000600082015250565b60006122c4600c83611bfd565b91506122cf8261228e565b602082019050919050565b600060208201905081810360008301526122f3816122b7565b9050919050565b600060408201905061230f6000830185611bc8565b81810360208301526123218184611c38565b90509392505050565b60008151905061233981611708565b92915050565b600060208284031215612355576123546116f4565b5b60006123638482850161232a565b91505092915050565b7f4e487b7100000000000000000000000000000000000000000000000000000000600052602260045260246000fd5b600060028204905060018216806123b357607f821691505b6020821081036123c6576123c561236c565b5b50919050565b60008190508160005260206000209050919050565b60006020601f8301049050919050565b600082821b905092915050565b60006008830261242e7fffffffffffffffffffffffffffffffffffffffffffffffffffffffffffffffff826123f1565b61243886836123f1565b95508019841693508086168417925050509392505050565b600061246b612466612461846116fe565b611b24565b6116fe565b9050919050565b6000819050919050565b61248583612450565b61249961249182612472565b8484546123fe565b825550505050565b600090565b6124ae6124a1565b6124b981848461247c565b505050565b5b818110156124dd576124d26000826124a6565b6001810190506124bf565b5050565b601f821115612522576124f3816123cc565b6124fc846123e1565b8101602085101561250b578190505b61251f612517856123e1565b8301826124be565b50505b505050565b600082821c905092915050565b600061254560001984600802612527565b1980831691505092915050565b600061255e8383612534565b9150826002028217905092915050565b61257782611bf2565b67ffffffffffffffff8111156125905761258f61199d565b5b61259a825461239b565b6125a58282856124e1565b600060209050601f8311600181146125d857600084156125c6578287015190505b6125d08582612552565b865550612638565b601f1984166125e6866123cc565b60005b8281101561260e578489015182556001820191506020850194506020810190506125e9565b8683101561262b5784890151612627601f891682612534565b8355505b6001600288020188555050505b505050505050565b6000604082019050818103600083015261265a8185611c38565b90506126696020830184611b9e565b9392505050565b7f5465737420616c726561647920636f6d706c6574656400000000000000000000600082015250565b60006126a6601683611bfd565b91506126b182612670565b602082019050919050565b600060208201905081810360008301526126d581612699565b905091905056fea2646970667358221220081b911b74ff838e550636032ac57a620d84a1240a27bd7672523df3686bc27c64736f6c63430008140033",
  "linkReferences": {},
  "deployedLinkReferences": {}
}